{
  "_format": "hh-sol-artifact-1",
  "contractName": "AgriChain",
  "sourceName": "contracts/AgriChain.sol",
  "abi": [
    {
      "anonymous": false,
      "inputs": [
        {
          "indexed": true,
          "internalType": "uint256",
          "name": "productId",
          "type": "uint256"
        },
        {
          "indexed": false,
          "internalType": "string",
          "name": "action",
          "type": "string"
        },
        {
          "indexed": false,
          "internalType": "string",
          "name": "location",
          "type": "string"
        },
        {
          "indexed": false,
          "internalType": "uint256",
          "name": "timestamp",
          "type": "uint256"
        }
      ],
      "name": "LogAdded",
      "type": "event"
    },
    {
      "inputs": [
        {
          "internalType": "uint256",
          "name": "_productId",
          "type": "uint256"
        },
        {
          "internalType": "string",
          "name": "_action",
          "type": "string"
        },
        {
          "internalType": "string",
          "name": "_location",
          "type": "string"
        }
      ],
      "name": "addLog",
      "outputs": [],
      "stateMutability": "nonpayable",
      "type": "function"
    },
    {
      "inputs": [
        {
          "internalType": "uint256",
          "name": "_productId",
          "type": "uint256"
        },
        {
          "internalType": "uint256",
          "name": "index",
          "type": "uint256"
        }
      ],
      "name": "getLog",
      "outputs": [
        {
          "internalType": "string",
          "name": "",
          "type": "string"
        },
        {
          "internalType": "string",
          "name": "",
          "type": "string"
        },
        {
          "internalType": "uint256",
          "name": "",
          "type": "uint256"
        },
        {
          "internalType": "address",
          "name": "",
          "type": "address"
        }
      ],
      "stateMutability": "view",
      "type": "function"
    },
    {
      "inputs": [
        {
          "internalType": "uint256",
          "name": "_productId",
          "type": "uint256"
        }
      ],
      "name": "getLogCount",
      "outputs": [
        {
          "internalType": "uint256",
          "name": "",
          "type": "uint256"
        }
      ],
      "stateMutability": "view",
      "type": "function"
    },
    {
      "inputs": [
        {
          "internalType": "uint256",
          "name": "",
          "type": "uint256"
        },
        {
          "internalType": "uint256",
          "name": "",
          "type": "uint256"
        }
      ],
      "name": "productLogs",
      "outputs": [
        {
          "internalType": "string",
          "name": "action",
          "type": "string"
        },
        {
          "internalType": "string",
          "name": "location",
          "type": "string"
        },
        {
          "internalType": "uint256",
          "name": "timestamp",
          "type": "uint256"
        },
        {
          "internalType": "address",
          "name": "recorder",
          "type": "address"
        }
      ],
      "stateMutability": "view",
      "type": "function"
    }
  ],
  "bytecode": "0x608060405234801561001057600080fd5b50610cb6806100206000396000f3fe608060405234801561001057600080fd5b506004361061004c5760003560e01c80631c7965cb146100515780633227dab114610084578063714cab3e146100a0578063ecd702c9146100d0575b600080fd5b61006b600480360381019061006691906105b3565b610103565b60405161007b94939291906106d3565b60405180910390f35b61009e6004803603810190610099919061085b565b610280565b005b6100ba60048036038101906100b591906108e6565b6103b2565b6040516100c79190610913565b60405180910390f35b6100ea60048036038101906100e591906105b3565b6103d1565b6040516100fa94939291906106d3565b60405180910390f35b6000602052816000526040600020818154811061011f57600080fd5b9060005260206000209060040201600091509150508060000180546101439061095d565b80601f016020809104026020016040519081016040528092919081815260200182805461016f9061095d565b80156101bc5780601f10610191576101008083540402835291602001916101bc565b820191906000526020600020905b81548152906001019060200180831161019f57829003601f168201915b5050505050908060010180546101d19061095d565b80601f01602080910402602001604051908101604052809291908181526020018280546101fd9061095d565b801561024a5780601f1061021f5761010080835404028352916020019161024a565b820191906000526020600020905b81548152906001019060200180831161022d57829003601f168201915b5050505050908060020154908060030160009054906101000a900473ffffffffffffffffffffffffffffffffffffffff16905084565b60008084815260200190815260200160002060405180608001604052808481526020018381526020014281526020013373ffffffffffffffffffffffffffffffffffffffff16815250908060018154018082558091505060019003906000526020600020906004020160009091909190915060008201518160000190816103079190610b3a565b50602082015181600101908161031d9190610b3a565b506040820151816002015560608201518160030160006101000a81548173ffffffffffffffffffffffffffffffffffffffff021916908373ffffffffffffffffffffffffffffffffffffffff1602179055505050827f06af170517272e60d652f4ebeb8064e501a5fa522a2b3346d6363f270aacd9558383426040516103a593929190610c0c565b60405180910390a2505050565b6000806000838152602001908152602001600020805490509050919050565b606080600080600080600088815260200190815260200160002086815481106103fd576103fc610c51565b5b90600052602060002090600402019050806000018160010182600201548360030160009054906101000a900473ffffffffffffffffffffffffffffffffffffffff1683805461044b9061095d565b80601f01602080910402602001604051908101604052809291908181526020018280546104779061095d565b80156104c45780601f10610499576101008083540402835291602001916104c4565b820191906000526020600020905b8154815290600101906020018083116104a757829003601f168201915b505050505093508280546104d79061095d565b80601f01602080910402602001604051908101604052809291908181526020018280546105039061095d565b80156105505780601f1061052557610100808354040283529160200191610550565b820191906000526020600020905b81548152906001019060200180831161053357829003601f168201915b5050505050925094509450945094505092959194509250565b6000604051905090565b600080fd5b600080fd5b6000819050919050565b6105908161057d565b811461059b57600080fd5b50565b6000813590506105ad81610587565b92915050565b600080604083850312156105ca576105c9610573565b5b60006105d88582860161059e565b92505060206105e98582860161059e565b9150509250929050565b600081519050919050565b600082825260208201905092915050565b60005b8381101561062d578082015181840152602081019050610612565b60008484015250505050565b6000601f19601f8301169050919050565b6000610655826105f3565b61065f81856105fe565b935061066f81856020860161060f565b61067881610639565b840191505092915050565b61068c8161057d565b82525050565b600073ffffffffffffffffffffffffffffffffffffffff82169050919050565b60006106bd82610692565b9050919050565b6106cd816106b2565b82525050565b600060808201905081810360008301526106ed818761064a565b90508181036020830152610701818661064a565b90506107106040830185610683565b61071d60608301846106c4565b95945050505050565b600080fd5b600080fd5b7f4e487b7100000000000000000000000000000000000000000000000000000000600052604160045260246000fd5b61076882610639565b810181811067ffffffffffffffff8211171561078757610786610730565b5b80604052505050565b600061079a610569565b90506107a6828261075f565b919050565b600067ffffffffffffffff8211156107c6576107c5610730565b5b6107cf82610639565b9050602081019050919050565b82818337600083830152505050565b60006107fe6107f9846107ab565b610790565b90508281526020810184848401111561081a5761081961072b565b5b6108258482856107dc565b509392505050565b600082601f83011261084257610841610726565b5b81356108528482602086016107eb565b91505092915050565b60008060006060848603121561087457610873610573565b5b60006108828682870161059e565b935050602084013567ffffffffffffffff8111156108a3576108a2610578565b5b6108af8682870161082d565b925050604084013567ffffffffffffffff8111156108d0576108cf610578565b5b6108dc8682870161082d565b9150509250925092565b6000602082840312156108fc576108fb610573565b5b600061090a8482850161059e565b91505092915050565b60006020820190506109286000830184610683565b92915050565b7f4e487b7100000000000000000000000000000000000000000000000000000000600052602260045260246000fd5b6000600282049050600182168061097557607f821691505b6020821081036109885761098761092e565b5b50919050565b60008190508160005260206000209050919050565b60006020601f8301049050919050565b600082821b905092915050565b6000600883026109f07fffffffffffffffffffffffffffffffffffffffffffffffffffffffffffffffff826109b3565b6109fa86836109b3565b95508019841693508086168417925050509392505050565b6000819050919050565b6000610a37610a32610a2d8461057d565b610a12565b61057d565b9050919050565b6000819050919050565b610a5183610a1c565b610a65610a5d82610a3e565b8484546109c0565b825550505050565b600090565b610a7a610a6d565b610a85818484610a48565b505050565b5b81811015610aa957610a9e600082610a72565b600181019050610a8b565b5050565b601f821115610aee57610abf8161098e565b610ac8846109a3565b81016020851015610ad7578190505b610aeb610ae3856109a3565b830182610a8a565b50505b505050565b600082821c905092915050565b6000610b1160001984600802610af3565b1980831691505092915050565b6000610b2a8383610b00565b9150826002028217905092915050565b610b43826105f3565b67ffffffffffffffff811115610b5c57610b5b610730565b5b610b66825461095d565b610b71828285610aad565b600060209050601f831160018114610ba45760008415610b92578287015190505b610b9c8582610b1e565b865550610c04565b601f198416610bb28661098e565b60005b82811015610bda57848901518255600182019150602085019450602081019050610bb5565b86831015610bf75784890151610bf3601f891682610b00565b8355505b6001600288020188555050505b505050505050565b60006060820190508181036000830152610c26818661064a565b90508181036020830152610c3a818561064a565b9050610c496040830184610683565b949350505050565b7f4e487b7100000000000000000000000000000000000000000000000000000000600052603260045260246000fdfea2646970667358221220230c5f804c910d4c0a4886888d1a9b8b69f24ac2d8a0a237c5c5a96e5e33234f64736f6c63430008180033",
  "linkReferences": {},
  "deployedLinkReferences": {}
}